{
  "_format": "hh-sol-artifact-1",
  "contractName": "MyTokenV1",
  "sourceName": "contracts/MyTokenV1.sol",
  "abi": [
    {
      "inputs": [],
      "stateMutability": "nonpayable",
      "type": "constructor"
    },
    {
      "anonymous": false,
      "inputs": [
        {
          "indexed": false,
          "internalType": "address",
          "name": "previousAdmin",
          "type": "address"
        },
        {
          "indexed": false,
          "internalType": "address",
          "name": "newAdmin",
          "type": "address"
        }
      ],
      "name": "AdminChanged",
      "type": "event"
    },
    {
      "anonymous": false,
      "inputs": [
        {
          "indexed": true,
          "internalType": "address",
          "name": "owner",
          "type": "address"
        },
        {
          "indexed": true,
          "internalType": "address",
          "name": "spender",
          "type": "address"
        },
        {
          "indexed": false,
          "internalType": "uint256",
          "name": "value",
          "type": "uint256"
        }
      ],
      "name": "Approval",
      "type": "event"
    },
    {
      "anonymous": false,
      "inputs": [
        {
          "indexed": true,
          "internalType": "address",
          "name": "beacon",
          "type": "address"
        }
      ],
      "name": "BeaconUpgraded",
      "type": "event"
    },
    {
      "anonymous": false,
      "inputs": [
        {
          "indexed": true,
          "internalType": "address",
          "name": "previousOwner",
          "type": "address"
        },
        {
          "indexed": true,
          "internalType": "address",
          "name": "newOwner",
          "type": "address"
        }
      ],
      "name": "OwnershipTransferred",
      "type": "event"
    },
    {
      "anonymous": false,
      "inputs": [
        {
          "indexed": true,
          "internalType": "address",
          "name": "from",
          "type": "address"
        },
        {
          "indexed": true,
          "internalType": "address",
          "name": "to",
          "type": "address"
        },
        {
          "indexed": false,
          "internalType": "uint256",
          "name": "value",
          "type": "uint256"
        }
      ],
      "name": "Transfer",
      "type": "event"
    },
    {
      "anonymous": false,
      "inputs": [
        {
          "indexed": true,
          "internalType": "address",
          "name": "implementation",
          "type": "address"
        }
      ],
      "name": "Upgraded",
      "type": "event"
    },
    {
      "inputs": [
        {
          "internalType": "address",
          "name": "owner",
          "type": "address"
        },
        {
          "internalType": "address",
          "name": "spender",
          "type": "address"
        }
      ],
      "name": "allowance",
      "outputs": [
        {
          "internalType": "uint256",
          "name": "",
          "type": "uint256"
        }
      ],
      "stateMutability": "view",
      "type": "function"
    },
    {
      "inputs": [
        {
          "internalType": "address",
          "name": "spender",
          "type": "address"
        },
        {
          "internalType": "uint256",
          "name": "amount",
          "type": "uint256"
        }
      ],
      "name": "approve",
      "outputs": [
        {
          "internalType": "bool",
          "name": "",
          "type": "bool"
        }
      ],
      "stateMutability": "nonpayable",
      "type": "function"
    },
    {
      "inputs": [
        {
          "internalType": "address",
          "name": "account",
          "type": "address"
        }
      ],
      "name": "balanceOf",
      "outputs": [
        {
          "internalType": "uint256",
          "name": "",
          "type": "uint256"
        }
      ],
      "stateMutability": "view",
      "type": "function"
    },
    {
      "inputs": [],
      "name": "decimals",
      "outputs": [
        {
          "internalType": "uint8",
          "name": "",
          "type": "uint8"
        }
      ],
      "stateMutability": "view",
      "type": "function"
    },
    {
      "inputs": [
        {
          "internalType": "address",
          "name": "spender",
          "type": "address"
        },
        {
          "internalType": "uint256",
          "name": "subtractedValue",
          "type": "uint256"
        }
      ],
      "name": "decreaseAllowance",
      "outputs": [
        {
          "internalType": "bool",
          "name": "",
          "type": "bool"
        }
      ],
      "stateMutability": "nonpayable",
      "type": "function"
    },
    {
      "inputs": [
        {
          "internalType": "address",
          "name": "spender",
          "type": "address"
        },
        {
          "internalType": "uint256",
          "name": "addedValue",
          "type": "uint256"
        }
      ],
      "name": "increaseAllowance",
      "outputs": [
        {
          "internalType": "bool",
          "name": "",
          "type": "bool"
        }
      ],
      "stateMutability": "nonpayable",
      "type": "function"
    },
    {
      "inputs": [],
      "name": "initialize",
      "outputs": [],
      "stateMutability": "nonpayable",
      "type": "function"
    },
    {
      "inputs": [],
      "name": "name",
      "outputs": [
        {
          "internalType": "string",
          "name": "",
          "type": "string"
        }
      ],
      "stateMutability": "view",
      "type": "function"
    },
    {
      "inputs": [],
      "name": "owner",
      "outputs": [
        {
          "internalType": "address",
          "name": "",
          "type": "address"
        }
      ],
      "stateMutability": "view",
      "type": "function"
    },
    {
      "inputs": [],
      "name": "renounceOwnership",
      "outputs": [],
      "stateMutability": "nonpayable",
      "type": "function"
    },
    {
      "inputs": [],
      "name": "symbol",
      "outputs": [
        {
          "internalType": "string",
          "name": "",
          "type": "string"
        }
      ],
      "stateMutability": "view",
      "type": "function"
    },
    {
      "inputs": [],
      "name": "totalSupply",
      "outputs": [
        {
          "internalType": "uint256",
          "name": "",
          "type": "uint256"
        }
      ],
      "stateMutability": "view",
      "type": "function"
    },
    {
      "inputs": [
        {
          "internalType": "address",
          "name": "recipient",
          "type": "address"
        },
        {
          "internalType": "uint256",
          "name": "amount",
          "type": "uint256"
        }
      ],
      "name": "transfer",
      "outputs": [
        {
          "internalType": "bool",
          "name": "",
          "type": "bool"
        }
      ],
      "stateMutability": "nonpayable",
      "type": "function"
    },
    {
      "inputs": [
        {
          "internalType": "address",
          "name": "sender",
          "type": "address"
        },
        {
          "internalType": "address",
          "name": "recipient",
          "type": "address"
        },
        {
          "internalType": "uint256",
          "name": "amount",
          "type": "uint256"
        }
      ],
      "name": "transferFrom",
      "outputs": [
        {
          "internalType": "bool",
          "name": "",
          "type": "bool"
        }
      ],
      "stateMutability": "nonpayable",
      "type": "function"
    },
    {
      "inputs": [
        {
          "internalType": "address",
          "name": "newOwner",
          "type": "address"
        }
      ],
      "name": "transferOwnership",
      "outputs": [],
      "stateMutability": "nonpayable",
      "type": "function"
    },
    {
      "inputs": [
        {
          "internalType": "address",
          "name": "newImplementation",
          "type": "address"
        }
      ],
      "name": "upgradeTo",
      "outputs": [],
      "stateMutability": "nonpayable",
      "type": "function"
    },
    {
      "inputs": [
        {
          "internalType": "address",
          "name": "newImplementation",
          "type": "address"
        },
        {
          "internalType": "bytes",
          "name": "data",
          "type": "bytes"
        }
      ],
      "name": "upgradeToAndCall",
      "outputs": [],
      "stateMutability": "payable",
      "type": "function"
    }
  ],
  "bytecode": "0x60a06040523073ffffffffffffffffffffffffffffffffffffffff1660809073ffffffffffffffffffffffffffffffffffffffff1660601b8152503480156200004757600080fd5b50600060019054906101000a900460ff16620000725760008054906101000a900460ff161562000083565b620000826200013f60201b60201c565b5b620000c5576040517f08c379a0000000000000000000000000000000000000000000000000000000008152600401620000bc9062000197565b60405180910390fd5b60008060019054906101000a900460ff16159050801562000116576001600060016101000a81548160ff02191690831515021790555060016000806101000a81548160ff0219169083151502179055505b8015620001385760008060016101000a81548160ff0219169083151502179055505b5062000219565b600062000157306200015d60201b62000f1b1760201c565b15905090565b600080823b905060008111915050919050565b60006200017f602e83620001b9565b91506200018c82620001ca565b604082019050919050565b60006020820190508181036000830152620001b28162000170565b9050919050565b600082825260208201905092915050565b7f496e697469616c697a61626c653a20636f6e747261637420697320616c72656160008201527f647920696e697469616c697a6564000000000000000000000000000000000000602082015250565b60805160601c612fd46200024d600039600081816105de0152818161066d0152818161083901526108c80152612fd46000f3fe6080604052600436106100fe5760003560e01c806370a082311161009557806395d89b411161006457806395d89b4114610316578063a457c2d714610341578063a9059cbb1461037e578063dd62ed3e146103bb578063f2fde38b146103f8576100fe565b806370a0823114610280578063715018a6146102bd5780638129fc1c146102d45780638da5cb5b146102eb576100fe565b8063313ce567116100d1578063313ce567146101d35780633659cfe6146101fe57806339509351146102275780634f1ef28614610264576100fe565b806306fdde0314610103578063095ea7b31461012e57806318160ddd1461016b57806323b872dd14610196575b600080fd5b34801561010f57600080fd5b50610118610421565b6040516101259190612390565b60405180910390f35b34801561013a57600080fd5b506101556004803603810190610150919061200e565b6104b3565b6040516101629190612375565b60405180910390f35b34801561017757600080fd5b506101806104d1565b60405161018d91906125d2565b60405180910390f35b3480156101a257600080fd5b506101bd60048036038101906101b89190611f6b565b6104db565b6040516101ca9190612375565b60405180910390f35b3480156101df57600080fd5b506101e86105d3565b6040516101f591906125ed565b60405180910390f35b34801561020a57600080fd5b5061022560048036038101906102209190611f06565b6105dc565b005b34801561023357600080fd5b5061024e6004803603810190610249919061200e565b61078b565b60405161025b9190612375565b60405180910390f35b61027e60048036038101906102799190611fba565b610837565b005b34801561028c57600080fd5b506102a760048036038101906102a29190611f06565b610974565b6040516102b491906125d2565b60405180910390f35b3480156102c957600080fd5b506102d26109bd565b005b3480156102e057600080fd5b506102e9610a45565b005b3480156102f757600080fd5b50610300610bd7565b60405161030d919061235a565b60405180910390f35b34801561032257600080fd5b5061032b610c01565b6040516103389190612390565b60405180910390f35b34801561034d57600080fd5b506103686004803603810190610363919061200e565b610c93565b6040516103759190612375565b60405180910390f35b34801561038a57600080fd5b506103a560048036038101906103a0919061200e565b610d7e565b6040516103b29190612375565b60405180910390f35b3480156103c757600080fd5b506103e260048036038101906103dd9190611f2f565b610d9c565b6040516103ef91906125d2565b60405180910390f35b34801561040457600080fd5b5061041f600480360381019061041a9190611f06565b610e23565b005b60606036805461043090612948565b80601f016020809104026020016040519081016040528092919081815260200182805461045c90612948565b80156104a95780601f1061047e576101008083540402835291602001916104a9565b820191906000526020600020905b81548152906001019060200180831161048c57829003601f168201915b5050505050905090565b60006104c76104c0610f2e565b8484610f36565b6001905092915050565b6000603554905090565b60006104e8848484611101565b6000603460008673ffffffffffffffffffffffffffffffffffffffff1673ffffffffffffffffffffffffffffffffffffffff1681526020019081526020016000206000610533610f2e565b73ffffffffffffffffffffffffffffffffffffffff1673ffffffffffffffffffffffffffffffffffffffff168152602001908152602001600020549050828110156105b3576040517f08c379a00000000000000000000000000000000000000000000000000000000081526004016105aa906124d2565b60405180910390fd5b6105c7856105bf610f2e565b858403610f36565b60019150509392505050565b60006012905090565b7f000000000000000000000000000000000000000000000000000000000000000073ffffffffffffffffffffffffffffffffffffffff163073ffffffffffffffffffffffffffffffffffffffff16141561066b576040517f08c379a000000000000000000000000000000000000000000000000000000000815260040161066290612432565b60405180910390fd5b7f000000000000000000000000000000000000000000000000000000000000000073ffffffffffffffffffffffffffffffffffffffff166106aa611385565b73ffffffffffffffffffffffffffffffffffffffff1614610700576040517f08c379a00000000000000000000000000000000000000000000000000000000081526004016106f790612472565b60405180910390fd5b610709816113dc565b61078881600067ffffffffffffffff81111561074e577f4e487b7100000000000000000000000000000000000000000000000000000000600052604160045260246000fd5b6040519080825280601f01601f1916602001820160405280156107805781602001600182028036833780820191505090505b50600061145b565b50565b600061082d610798610f2e565b8484603460006107a6610f2e565b73ffffffffffffffffffffffffffffffffffffffff1673ffffffffffffffffffffffffffffffffffffffff16815260200190815260200160002060008873ffffffffffffffffffffffffffffffffffffffff1673ffffffffffffffffffffffffffffffffffffffff168152602001908152602001600020546108289190612690565b610f36565b6001905092915050565b7f000000000000000000000000000000000000000000000000000000000000000073ffffffffffffffffffffffffffffffffffffffff163073ffffffffffffffffffffffffffffffffffffffff1614156108c6576040517f08c379a00000000000000000000000000000000000000000000000000000000081526004016108bd90612432565b60405180910390fd5b7f000000000000000000000000000000000000000000000000000000000000000073ffffffffffffffffffffffffffffffffffffffff16610905611385565b73ffffffffffffffffffffffffffffffffffffffff161461095b576040517f08c379a000000000000000000000000000000000000000000000000000000000815260040161095290612472565b60405180910390fd5b610964826113dc565b6109708282600161145b565b5050565b6000603360008373ffffffffffffffffffffffffffffffffffffffff1673ffffffffffffffffffffffffffffffffffffffff168152602001908152602001600020549050919050565b6109c5610f2e565b73ffffffffffffffffffffffffffffffffffffffff166109e3610bd7565b73ffffffffffffffffffffffffffffffffffffffff1614610a39576040517f08c379a0000000000000000000000000000000000000000000000000000000008152600401610a30906124f2565b60405180910390fd5b610a43600061162c565b565b600060019054906101000a900460ff16610a6d5760008054906101000a900460ff1615610a76565b610a756116f2565b5b610ab5576040517f08c379a0000000000000000000000000000000000000000000000000000000008152600401610aac90612492565b60405180910390fd5b60008060019054906101000a900460ff161590508015610b05576001600060016101000a81548160ff02191690831515021790555060016000806101000a81548160ff0219169083151502179055505b610b796040518060400160405280600781526020017f4d79546f6b656e000000000000000000000000000000000000000000000000008152506040518060400160405280600381526020017f4d544b0000000000000000000000000000000000000000000000000000000000815250611703565b610b81611768565b610b896117c9565b610bb333610b956105d3565b600a610ba19190612739565b6103e8610bae9190612857565b61182a565b8015610bd45760008060016101000a81548160ff0219169083151502179055505b50565b600060c960009054906101000a900473ffffffffffffffffffffffffffffffffffffffff16905090565b606060378054610c1090612948565b80601f0160208091040260200160405190810160405280929190818152602001828054610c3c90612948565b8015610c895780601f10610c5e57610100808354040283529160200191610c89565b820191906000526020600020905b815481529060010190602001808311610c6c57829003601f168201915b5050505050905090565b60008060346000610ca2610f2e565b73ffffffffffffffffffffffffffffffffffffffff1673ffffffffffffffffffffffffffffffffffffffff16815260200190815260200160002060008573ffffffffffffffffffffffffffffffffffffffff1673ffffffffffffffffffffffffffffffffffffffff16815260200190815260200160002054905082811015610d5f576040517f08c379a0000000000000000000000000000000000000000000000000000000008152600401610d5690612592565b60405180910390fd5b610d73610d6a610f2e565b85858403610f36565b600191505092915050565b6000610d92610d8b610f2e565b8484611101565b6001905092915050565b6000603460008473ffffffffffffffffffffffffffffffffffffffff1673ffffffffffffffffffffffffffffffffffffffff16815260200190815260200160002060008373ffffffffffffffffffffffffffffffffffffffff1673ffffffffffffffffffffffffffffffffffffffff16815260200190815260200160002054905092915050565b610e2b610f2e565b73ffffffffffffffffffffffffffffffffffffffff16610e49610bd7565b73ffffffffffffffffffffffffffffffffffffffff1614610e9f576040517f08c379a0000000000000000000000000000000000000000000000000000000008152600401610e96906124f2565b60405180910390fd5b600073ffffffffffffffffffffffffffffffffffffffff168173ffffffffffffffffffffffffffffffffffffffff161415610f0f576040517f08c379a0000000000000000000000000000000000000000000000000000000008152600401610f06906123f2565b60405180910390fd5b610f188161162c565b50565b600080823b905060008111915050919050565b600033905090565b600073ffffffffffffffffffffffffffffffffffffffff168373ffffffffffffffffffffffffffffffffffffffff161415610fa6576040517f08c379a0000000000000000000000000000000000000000000000000000000008152600401610f9d90612552565b60405180910390fd5b600073ffffffffffffffffffffffffffffffffffffffff168273ffffffffffffffffffffffffffffffffffffffff161415611016576040517f08c379a000000000000000000000000000000000000000000000000000000000815260040161100d90612412565b60405180910390fd5b80603460008573ffffffffffffffffffffffffffffffffffffffff1673ffffffffffffffffffffffffffffffffffffffff16815260200190815260200160002060008473ffffffffffffffffffffffffffffffffffffffff1673ffffffffffffffffffffffffffffffffffffffff168152602001908152602001600020819055508173ffffffffffffffffffffffffffffffffffffffff168373ffffffffffffffffffffffffffffffffffffffff167f8c5be1e5ebec7d5bd14f71427d1e84f3dd0314c0f7b2291e5b200ac8c7c3b925836040516110f491906125d2565b60405180910390a3505050565b600073ffffffffffffffffffffffffffffffffffffffff168373ffffffffffffffffffffffffffffffffffffffff161415611171576040517f08c379a000000000000000000000000000000000000000000000000000000000815260040161116890612532565b60405180910390fd5b600073ffffffffffffffffffffffffffffffffffffffff168273ffffffffffffffffffffffffffffffffffffffff1614156111e1576040517f08c379a00000000000000000000000000000000000000000000000000000000081526004016111d8906123b2565b60405180910390fd5b6111ec83838361198b565b6000603360008573ffffffffffffffffffffffffffffffffffffffff1673ffffffffffffffffffffffffffffffffffffffff16815260200190815260200160002054905081811015611273576040517f08c379a000000000000000000000000000000000000000000000000000000000815260040161126a90612452565b60405180910390fd5b818103603360008673ffffffffffffffffffffffffffffffffffffffff1673ffffffffffffffffffffffffffffffffffffffff1681526020019081526020016000208190555081603360008573ffffffffffffffffffffffffffffffffffffffff1673ffffffffffffffffffffffffffffffffffffffff16815260200190815260200160002060008282546113089190612690565b925050819055508273ffffffffffffffffffffffffffffffffffffffff168473ffffffffffffffffffffffffffffffffffffffff167fddf252ad1be2c89b69c2b068fc378daa952ba7f163c4a11628f55a4df523b3ef8460405161136c91906125d2565b60405180910390a361137f848484611990565b50505050565b60006113b37f360894a13ba1a3210667c828492db98dca3e2076cc3735a920a3ca505d382bbc60001b611995565b60000160009054906101000a900473ffffffffffffffffffffffffffffffffffffffff16905090565b6113e4610f2e565b73ffffffffffffffffffffffffffffffffffffffff16611402610bd7565b73ffffffffffffffffffffffffffffffffffffffff1614611458576040517f08c379a000000000000000000000000000000000000000000000000000000000815260040161144f906124f2565b60405180910390fd5b50565b6000611465611385565b90506114708461199f565b60008351118061147d5750815b1561148e5761148c8484611a58565b505b60006114bc7f4910fdfa16fed3260ed0e7147f7cc6da11a60208b5b9406d12a635614ffd914360001b611b3c565b90508060000160009054906101000a900460ff166116255760018160000160006101000a81548160ff0219169083151502179055506115888583604051602401611506919061235a565b6040516020818303038152906040527f3659cfe6000000000000000000000000000000000000000000000000000000007bffffffffffffffffffffffffffffffffffffffffffffffffffffffff19166020820180517bffffffffffffffffffffffffffffffffffffffffffffffffffffffff8381831617835250505050611a58565b5060008160000160006101000a81548160ff0219169083151502179055506115ae611385565b73ffffffffffffffffffffffffffffffffffffffff168273ffffffffffffffffffffffffffffffffffffffff161461161b576040517f08c379a0000000000000000000000000000000000000000000000000000000008152600401611612906123d2565b60405180910390fd5b61162485611b46565b5b5050505050565b600060c960009054906101000a900473ffffffffffffffffffffffffffffffffffffffff1690508160c960006101000a81548173ffffffffffffffffffffffffffffffffffffffff021916908373ffffffffffffffffffffffffffffffffffffffff1602179055508173ffffffffffffffffffffffffffffffffffffffff168173ffffffffffffffffffffffffffffffffffffffff167f8be0079c531659141344cd1fd0a4f28419497f9722a3daafe3b4186f6b6457e060405160405180910390a35050565b60006116fd30610f1b565b15905090565b600060019054906101000a900460ff16611752576040517f08c379a000000000000000000000000000000000000000000000000000000000815260040161174990612572565b60405180910390fd5b61175a611b95565b6117648282611be6565b5050565b600060019054906101000a900460ff166117b7576040517f08c379a00000000000000000000000000000000000000000000000000000000081526004016117ae90612572565b60405180910390fd5b6117bf611b95565b6117c7611c67565b565b600060019054906101000a900460ff16611818576040517f08c379a000000000000000000000000000000000000000000000000000000000815260040161180f90612572565b60405180910390fd5b611820611cc8565b611828611d19565b565b600073ffffffffffffffffffffffffffffffffffffffff168273ffffffffffffffffffffffffffffffffffffffff16141561189a576040517f08c379a0000000000000000000000000000000000000000000000000000000008152600401611891906125b2565b60405180910390fd5b6118a66000838361198b565b80603560008282546118b89190612690565b9250508190555080603360008473ffffffffffffffffffffffffffffffffffffffff1673ffffffffffffffffffffffffffffffffffffffff168152602001908152602001600020600082825461190e9190612690565b925050819055508173ffffffffffffffffffffffffffffffffffffffff16600073ffffffffffffffffffffffffffffffffffffffff167fddf252ad1be2c89b69c2b068fc378daa952ba7f163c4a11628f55a4df523b3ef8360405161197391906125d2565b60405180910390a361198760008383611990565b5050565b505050565b505050565b6000819050919050565b6119a881610f1b565b6119e7576040517f08c379a00000000000000000000000000000000000000000000000000000000081526004016119de906124b2565b60405180910390fd5b80611a147f360894a13ba1a3210667c828492db98dca3e2076cc3735a920a3ca505d382bbc60001b611995565b60000160006101000a81548173ffffffffffffffffffffffffffffffffffffffff021916908373ffffffffffffffffffffffffffffffffffffffff16021790555050565b6060611a6383610f1b565b611aa2576040517f08c379a0000000000000000000000000000000000000000000000000000000008152600401611a9990612512565b60405180910390fd5b6000808473ffffffffffffffffffffffffffffffffffffffff1684604051611aca9190612343565b600060405180830381855af49150503d8060008114611b05576040519150601f19603f3d011682016040523d82523d6000602084013e611b0a565b606091505b5091509150611b328282604051806060016040528060278152602001612f7860279139611d6a565b9250505092915050565b6000819050919050565b611b4f8161199f565b8073ffffffffffffffffffffffffffffffffffffffff167fbc7cd75a20ee27fd9adebab32041f755214dbc6bffa90cc0225b39da2e5c2d3b60405160405180910390a250565b600060019054906101000a900460ff16611be4576040517f08c379a0000000000000000000000000000000000000000000000000000000008152600401611bdb90612572565b60405180910390fd5b565b600060019054906101000a900460ff16611c35576040517f08c379a0000000000000000000000000000000000000000000000000000000008152600401611c2c90612572565b60405180910390fd5b8160369080519060200190611c4b929190611dd1565b508060379080519060200190611c62929190611dd1565b505050565b600060019054906101000a900460ff16611cb6576040517f08c379a0000000000000000000000000000000000000000000000000000000008152600401611cad90612572565b60405180910390fd5b611cc6611cc1610f2e565b61162c565b565b600060019054906101000a900460ff16611d17576040517f08c379a0000000000000000000000000000000000000000000000000000000008152600401611d0e90612572565b60405180910390fd5b565b600060019054906101000a900460ff16611d68576040517f08c379a0000000000000000000000000000000000000000000000000000000008152600401611d5f90612572565b60405180910390fd5b565b60608315611d7a57829050611dca565b600083511115611d8d5782518084602001fd5b816040517f08c379a0000000000000000000000000000000000000000000000000000000008152600401611dc19190612390565b60405180910390fd5b9392505050565b828054611ddd90612948565b90600052602060002090601f016020900481019282611dff5760008555611e46565b82601f10611e1857805160ff1916838001178555611e46565b82800160010185558215611e46579182015b82811115611e45578251825591602001919060010190611e2a565b5b509050611e539190611e57565b5090565b5b80821115611e70576000816000905550600101611e58565b5090565b6000611e87611e828461262d565b612608565b905082815260208101848484011115611e9f57600080fd5b611eaa848285612906565b509392505050565b600081359050611ec181612f49565b92915050565b600082601f830112611ed857600080fd5b8135611ee8848260208601611e74565b91505092915050565b600081359050611f0081612f60565b92915050565b600060208284031215611f1857600080fd5b6000611f2684828501611eb2565b91505092915050565b60008060408385031215611f4257600080fd5b6000611f5085828601611eb2565b9250506020611f6185828601611eb2565b9150509250929050565b600080600060608486031215611f8057600080fd5b6000611f8e86828701611eb2565b9350506020611f9f86828701611eb2565b9250506040611fb086828701611ef1565b9150509250925092565b60008060408385031215611fcd57600080fd5b6000611fdb85828601611eb2565b925050602083013567ffffffffffffffff811115611ff857600080fd5b61200485828601611ec7565b9150509250929050565b6000806040838503121561202157600080fd5b600061202f85828601611eb2565b925050602061204085828601611ef1565b9150509250929050565b612053816128b1565b82525050565b612062816128c3565b82525050565b60006120738261265e565b61207d8185612674565b935061208d818560208601612915565b80840191505092915050565b60006120a482612669565b6120ae818561267f565b93506120be818560208601612915565b6120c781612a38565b840191505092915050565b60006120df60238361267f565b91506120ea82612a56565b604082019050919050565b6000612102602f8361267f565b915061210d82612aa5565b604082019050919050565b600061212560268361267f565b915061213082612af4565b604082019050919050565b600061214860228361267f565b915061215382612b43565b604082019050919050565b600061216b602c8361267f565b915061217682612b92565b604082019050919050565b600061218e60268361267f565b915061219982612be1565b604082019050919050565b60006121b1602c8361267f565b91506121bc82612c30565b604082019050919050565b60006121d4602e8361267f565b91506121df82612c7f565b604082019050919050565b60006121f7602d8361267f565b915061220282612cce565b604082019050919050565b600061221a60288361267f565b915061222582612d1d565b604082019050919050565b600061223d60208361267f565b915061224882612d6c565b602082019050919050565b600061226060268361267f565b915061226b82612d95565b604082019050919050565b600061228360258361267f565b915061228e82612de4565b604082019050919050565b60006122a660248361267f565b91506122b182612e33565b604082019050919050565b60006122c9602b8361267f565b91506122d482612e82565b604082019050919050565b60006122ec60258361267f565b91506122f782612ed1565b604082019050919050565b600061230f601f8361267f565b915061231a82612f20565b602082019050919050565b61232e816128ef565b82525050565b61233d816128f9565b82525050565b600061234f8284612068565b915081905092915050565b600060208201905061236f600083018461204a565b92915050565b600060208201905061238a6000830184612059565b92915050565b600060208201905081810360008301526123aa8184612099565b905092915050565b600060208201905081810360008301526123cb816120d2565b9050919050565b600060208201905081810360008301526123eb816120f5565b9050919050565b6000602082019050818103600083015261240b81612118565b9050919050565b6000602082019050818103600083015261242b8161213b565b9050919050565b6000602082019050818103600083015261244b8161215e565b9050919050565b6000602082019050818103600083015261246b81612181565b9050919050565b6000602082019050818103600083015261248b816121a4565b9050919050565b600060208201905081810360008301526124ab816121c7565b9050919050565b600060208201905081810360008301526124cb816121ea565b9050919050565b600060208201905081810360008301526124eb8161220d565b9050919050565b6000602082019050818103600083015261250b81612230565b9050919050565b6000602082019050818103600083015261252b81612253565b9050919050565b6000602082019050818103600083015261254b81612276565b9050919050565b6000602082019050818103600083015261256b81612299565b9050919050565b6000602082019050818103600083015261258b816122bc565b9050919050565b600060208201905081810360008301526125ab816122df565b9050919050565b600060208201905081810360008301526125cb81612302565b9050919050565b60006020820190506125e76000830184612325565b92915050565b60006020820190506126026000830184612334565b92915050565b6000612612612623565b905061261e828261297a565b919050565b6000604051905090565b600067ffffffffffffffff82111561264857612647612a09565b5b61265182612a38565b9050602081019050919050565b600081519050919050565b600081519050919050565b600081905092915050565b600082825260208201905092915050565b600061269b826128ef565b91506126a6836128ef565b9250827fffffffffffffffffffffffffffffffffffffffffffffffffffffffffffffffff038211156126db576126da6129ab565b5b828201905092915050565b6000808291508390505b60018511156127305780860481111561270c5761270b6129ab565b5b600185161561271b5780820291505b808102905061272985612a49565b94506126f0565b94509492505050565b6000612744826128ef565b915061274f836128f9565b925061277c7fffffffffffffffffffffffffffffffffffffffffffffffffffffffffffffffff8484612784565b905092915050565b6000826127945760019050612850565b816127a25760009050612850565b81600181146127b857600281146127c2576127f1565b6001915050612850565b60ff8411156127d4576127d36129ab565b5b8360020a9150848211156127eb576127ea6129ab565b5b50612850565b5060208310610133831016604e8410600b84101617156128265782820a905083811115612821576128206129ab565b5b612850565b61283384848460016126e6565b9250905081840481111561284a576128496129ab565b5b81810290505b9392505050565b6000612862826128ef565b915061286d836128ef565b9250817fffffffffffffffffffffffffffffffffffffffffffffffffffffffffffffffff04831182151516156128a6576128a56129ab565b5b828202905092915050565b60006128bc826128cf565b9050919050565b60008115159050919050565b600073ffffffffffffffffffffffffffffffffffffffff82169050919050565b6000819050919050565b600060ff82169050919050565b82818337600083830152505050565b60005b83811015612933578082015181840152602081019050612918565b83811115612942576000848401525b50505050565b6000600282049050600182168061296057607f821691505b60208210811415612974576129736129da565b5b50919050565b61298382612a38565b810181811067ffffffffffffffff821117156129a2576129a1612a09565b5b80604052505050565b7f4e487b7100000000000000000000000000000000000000000000000000000000600052601160045260246000fd5b7f4e487b7100000000000000000000000000000000000000000000000000000000600052602260045260246000fd5b7f4e487b7100000000000000000000000000000000000000000000000000000000600052604160045260246000fd5b6000601f19601f8301169050919050565b60008160011c9050919050565b7f45524332303a207472616e7366657220746f20746865207a65726f206164647260008201527f6573730000000000000000000000000000000000000000000000000000000000602082015250565b7f45524331393637557067726164653a207570677261646520627265616b73206660008201527f7572746865722075706772616465730000000000000000000000000000000000602082015250565b7f4f776e61626c653a206e6577206f776e657220697320746865207a65726f206160008201527f6464726573730000000000000000000000000000000000000000000000000000602082015250565b7f45524332303a20617070726f766520746f20746865207a65726f20616464726560008201527f7373000000000000000000000000000000000000000000000000000000000000602082015250565b7f46756e6374696f6e206d7573742062652063616c6c6564207468726f7567682060008201527f64656c656761746563616c6c0000000000000000000000000000000000000000602082015250565b7f45524332303a207472616e7366657220616d6f756e742065786365656473206260008201527f616c616e63650000000000000000000000000000000000000000000000000000602082015250565b7f46756e6374696f6e206d7573742062652063616c6c6564207468726f7567682060008201527f6163746976652070726f78790000000000000000000000000000000000000000602082015250565b7f496e697469616c697a61626c653a20636f6e747261637420697320616c72656160008201527f647920696e697469616c697a6564000000000000000000000000000000000000602082015250565b7f455243313936373a206e657720696d706c656d656e746174696f6e206973206e60008201527f6f74206120636f6e747261637400000000000000000000000000000000000000602082015250565b7f45524332303a207472616e7366657220616d6f756e742065786365656473206160008201527f6c6c6f77616e6365000000000000000000000000000000000000000000000000602082015250565b7f4f776e61626c653a2063616c6c6572206973206e6f7420746865206f776e6572600082015250565b7f416464726573733a2064656c65676174652063616c6c20746f206e6f6e2d636f60008201527f6e74726163740000000000000000000000000000000000000000000000000000602082015250565b7f45524332303a207472616e736665722066726f6d20746865207a65726f20616460008201527f6472657373000000000000000000000000000000000000000000000000000000602082015250565b7f45524332303a20617070726f76652066726f6d20746865207a65726f2061646460008201527f7265737300000000000000000000000000000000000000000000000000000000602082015250565b7f496e697469616c697a61626c653a20636f6e7472616374206973206e6f74206960008201527f6e697469616c697a696e67000000000000000000000000000000000000000000602082015250565b7f45524332303a2064656372656173656420616c6c6f77616e63652062656c6f7760008201527f207a65726f000000000000000000000000000000000000000000000000000000602082015250565b7f45524332303a206d696e7420746f20746865207a65726f206164647265737300600082015250565b612f52816128b1565b8114612f5d57600080fd5b50565b612f69816128ef565b8114612f7457600080fd5b5056fe416464726573733a206c6f772d6c6576656c2064656c65676174652063616c6c206661696c6564a2646970667358221220d30bb7a57190f5248fb832aa082dadeccc83ca71de684dfffa7b762733ddc9eb64736f6c63430008030033",
  "linkReferences": {},
  "deployedLinkReferences": {}
}