{
  "_format": "hh-sol-artifact-1",
  "contractName": "MyTokenV1",
  "sourceName": "contracts/MyTokenV1.sol",
  "abi": [
    {
      "inputs": [],
      "stateMutability": "nonpayable",
      "type": "constructor"
    },
    {
      "anonymous": false,
      "inputs": [
        {
          "indexed": true,
          "internalType": "address",
          "name": "owner",
          "type": "address"
        },
        {
          "indexed": true,
          "internalType": "address",
          "name": "spender",
          "type": "address"
        },
        {
          "indexed": false,
          "internalType": "uint256",
          "name": "value",
          "type": "uint256"
        }
      ],
      "name": "Approval",
      "type": "event"
    },
    {
      "anonymous": false,
      "inputs": [
        {
          "indexed": true,
          "internalType": "address",
          "name": "from",
          "type": "address"
        },
        {
          "indexed": true,
          "internalType": "address",
          "name": "to",
          "type": "address"
        },
        {
          "indexed": false,
          "internalType": "uint256",
          "name": "value",
          "type": "uint256"
        }
      ],
      "name": "Transfer",
      "type": "event"
    },
    {
      "inputs": [
        {
          "internalType": "address",
          "name": "owner",
          "type": "address"
        },
        {
          "internalType": "address",
          "name": "spender",
          "type": "address"
        }
      ],
      "name": "allowance",
      "outputs": [
        {
          "internalType": "uint256",
          "name": "",
          "type": "uint256"
        }
      ],
      "stateMutability": "view",
      "type": "function"
    },
    {
      "inputs": [
        {
          "internalType": "address",
          "name": "spender",
          "type": "address"
        },
        {
          "internalType": "uint256",
          "name": "amount",
          "type": "uint256"
        }
      ],
      "name": "approve",
      "outputs": [
        {
          "internalType": "bool",
          "name": "",
          "type": "bool"
        }
      ],
      "stateMutability": "nonpayable",
      "type": "function"
    },
    {
      "inputs": [
        {
          "internalType": "address",
          "name": "account",
          "type": "address"
        }
      ],
      "name": "balanceOf",
      "outputs": [
        {
          "internalType": "uint256",
          "name": "",
          "type": "uint256"
        }
      ],
      "stateMutability": "view",
      "type": "function"
    },
    {
      "inputs": [],
      "name": "decimals",
      "outputs": [
        {
          "internalType": "uint8",
          "name": "",
          "type": "uint8"
        }
      ],
      "stateMutability": "view",
      "type": "function"
    },
    {
      "inputs": [
        {
          "internalType": "address",
          "name": "spender",
          "type": "address"
        },
        {
          "internalType": "uint256",
          "name": "subtractedValue",
          "type": "uint256"
        }
      ],
      "name": "decreaseAllowance",
      "outputs": [
        {
          "internalType": "bool",
          "name": "",
          "type": "bool"
        }
      ],
      "stateMutability": "nonpayable",
      "type": "function"
    },
    {
      "inputs": [
        {
          "internalType": "address",
          "name": "spender",
          "type": "address"
        },
        {
          "internalType": "uint256",
          "name": "addedValue",
          "type": "uint256"
        }
      ],
      "name": "increaseAllowance",
      "outputs": [
        {
          "internalType": "bool",
          "name": "",
          "type": "bool"
        }
      ],
      "stateMutability": "nonpayable",
      "type": "function"
    },
    {
      "inputs": [],
      "name": "initialize",
      "outputs": [],
      "stateMutability": "nonpayable",
      "type": "function"
    },
    {
      "inputs": [],
      "name": "name",
      "outputs": [
        {
          "internalType": "string",
          "name": "",
          "type": "string"
        }
      ],
      "stateMutability": "view",
      "type": "function"
    },
    {
      "inputs": [],
      "name": "symbol",
      "outputs": [
        {
          "internalType": "string",
          "name": "",
          "type": "string"
        }
      ],
      "stateMutability": "view",
      "type": "function"
    },
    {
      "inputs": [],
      "name": "totalSupply",
      "outputs": [
        {
          "internalType": "uint256",
          "name": "",
          "type": "uint256"
        }
      ],
      "stateMutability": "view",
      "type": "function"
    },
    {
      "inputs": [
        {
          "internalType": "address",
          "name": "recipient",
          "type": "address"
        },
        {
          "internalType": "uint256",
          "name": "amount",
          "type": "uint256"
        }
      ],
      "name": "transfer",
      "outputs": [
        {
          "internalType": "bool",
          "name": "",
          "type": "bool"
        }
      ],
      "stateMutability": "nonpayable",
      "type": "function"
    },
    {
      "inputs": [
        {
          "internalType": "address",
          "name": "sender",
          "type": "address"
        },
        {
          "internalType": "address",
          "name": "recipient",
          "type": "address"
        },
        {
          "internalType": "uint256",
          "name": "amount",
          "type": "uint256"
        }
      ],
      "name": "transferFrom",
      "outputs": [
        {
          "internalType": "bool",
          "name": "",
          "type": "bool"
        }
      ],
      "stateMutability": "nonpayable",
      "type": "function"
    }
  ],
  "bytecode": "0x60806040523480156200001157600080fd5b50600060019054906101000a900460ff166200003c5760008054906101000a900460ff16156200004d565b6200004c6200010960201b60201c565b5b6200008f576040517f08c379a0000000000000000000000000000000000000000000000000000000008152600401620000869062000161565b60405180910390fd5b60008060019054906101000a900460ff161590508015620000e0576001600060016101000a81548160ff02191690831515021790555060016000806101000a81548160ff0219169083151502179055505b8015620001025760008060016101000a81548160ff0219169083151502179055505b50620001e3565b600062000121306200012760201b620008df1760201c565b15905090565b600080823b905060008111915050919050565b600062000149602e8362000183565b9150620001568262000194565b604082019050919050565b600060208201905081810360008301526200017c816200013a565b9050919050565b600082825260208201905092915050565b7f496e697469616c697a61626c653a20636f6e747261637420697320616c72656160008201527f647920696e697469616c697a6564000000000000000000000000000000000000602082015250565b611bf780620001f36000396000f3fe608060405234801561001057600080fd5b50600436106100b45760003560e01c806370a082311161007157806370a08231146101a35780638129fc1c146101d357806395d89b41146101dd578063a457c2d7146101fb578063a9059cbb1461022b578063dd62ed3e1461025b576100b4565b806306fdde03146100b9578063095ea7b3146100d757806318160ddd1461010757806323b872dd14610125578063313ce567146101555780633950935114610173575b600080fd5b6100c161028b565b6040516100ce9190611398565b60405180910390f35b6100f160048036038101906100ec919061117d565b61031d565b6040516100fe919061137d565b60405180910390f35b61010f61033b565b60405161011c91906114fa565b60405180910390f35b61013f600480360381019061013a919061112e565b610345565b60405161014c919061137d565b60405180910390f35b61015d61043d565b60405161016a9190611515565b60405180910390f35b61018d6004803603810190610188919061117d565b610446565b60405161019a919061137d565b60405180910390f35b6101bd60048036038101906101b891906110c9565b6104f2565b6040516101ca91906114fa565b60405180910390f35b6101db61053b565b005b6101e56106bd565b6040516101f29190611398565b60405180910390f35b6102156004803603810190610210919061117d565b61074f565b604051610222919061137d565b60405180910390f35b6102456004803603810190610240919061117d565b61083a565b604051610252919061137d565b60405180910390f35b610275600480360381019061027091906110f2565b610858565b60405161028291906114fa565b60405180910390f35b60606036805461029a906117f5565b80601f01602080910402602001604051908101604052809291908181526020018280546102c6906117f5565b80156103135780601f106102e857610100808354040283529160200191610313565b820191906000526020600020905b8154815290600101906020018083116102f657829003601f168201915b5050505050905090565b600061033161032a6108f2565b84846108fa565b6001905092915050565b6000603554905090565b6000610352848484610ac5565b6000603460008673ffffffffffffffffffffffffffffffffffffffff1673ffffffffffffffffffffffffffffffffffffffff168152602001908152602001600020600061039d6108f2565b73ffffffffffffffffffffffffffffffffffffffff1673ffffffffffffffffffffffffffffffffffffffff1681526020019081526020016000205490508281101561041d576040517f08c379a00000000000000000000000000000000000000000000000000000000081526004016104149061143a565b60405180910390fd5b610431856104296108f2565b8584036108fa565b60019150509392505050565b60006012905090565b60006104e86104536108f2565b8484603460006104616108f2565b73ffffffffffffffffffffffffffffffffffffffff1673ffffffffffffffffffffffffffffffffffffffff16815260200190815260200160002060008873ffffffffffffffffffffffffffffffffffffffff1673ffffffffffffffffffffffffffffffffffffffff168152602001908152602001600020546104e3919061154c565b6108fa565b6001905092915050565b6000603360008373ffffffffffffffffffffffffffffffffffffffff1673ffffffffffffffffffffffffffffffffffffffff168152602001908152602001600020549050919050565b600060019054906101000a900460ff166105635760008054906101000a900460ff161561056c565b61056b610d49565b5b6105ab576040517f08c379a00000000000000000000000000000000000000000000000000000000081526004016105a29061141a565b60405180910390fd5b60008060019054906101000a900460ff1615905080156105fb576001600060016101000a81548160ff02191690831515021790555060016000806101000a81548160ff0219169083151502179055505b61066f6040518060400160405280600781526020017f4d79546f6b656e000000000000000000000000000000000000000000000000008152506040518060400160405280600381526020017f4d544b0000000000000000000000000000000000000000000000000000000000815250610d5a565b6106993361067b61043d565b600a61068791906115f5565b6103e86106949190611713565b610dbf565b80156106ba5760008060016101000a81548160ff0219169083151502179055505b50565b6060603780546106cc906117f5565b80601f01602080910402602001604051908101604052809291908181526020018280546106f8906117f5565b80156107455780601f1061071a57610100808354040283529160200191610745565b820191906000526020600020905b81548152906001019060200180831161072857829003601f168201915b5050505050905090565b6000806034600061075e6108f2565b73ffffffffffffffffffffffffffffffffffffffff1673ffffffffffffffffffffffffffffffffffffffff16815260200190815260200160002060008573ffffffffffffffffffffffffffffffffffffffff1673ffffffffffffffffffffffffffffffffffffffff1681526020019081526020016000205490508281101561081b576040517f08c379a0000000000000000000000000000000000000000000000000000000008152600401610812906114ba565b60405180910390fd5b61082f6108266108f2565b858584036108fa565b600191505092915050565b600061084e6108476108f2565b8484610ac5565b6001905092915050565b6000603460008473ffffffffffffffffffffffffffffffffffffffff1673ffffffffffffffffffffffffffffffffffffffff16815260200190815260200160002060008373ffffffffffffffffffffffffffffffffffffffff1673ffffffffffffffffffffffffffffffffffffffff16815260200190815260200160002054905092915050565b600080823b905060008111915050919050565b600033905090565b600073ffffffffffffffffffffffffffffffffffffffff168373ffffffffffffffffffffffffffffffffffffffff16141561096a576040517f08c379a00000000000000000000000000000000000000000000000000000000081526004016109619061147a565b60405180910390fd5b600073ffffffffffffffffffffffffffffffffffffffff168273ffffffffffffffffffffffffffffffffffffffff1614156109da576040517f08c379a00000000000000000000000000000000000000000000000000000000081526004016109d1906113da565b60405180910390fd5b80603460008573ffffffffffffffffffffffffffffffffffffffff1673ffffffffffffffffffffffffffffffffffffffff16815260200190815260200160002060008473ffffffffffffffffffffffffffffffffffffffff1673ffffffffffffffffffffffffffffffffffffffff168152602001908152602001600020819055508173ffffffffffffffffffffffffffffffffffffffff168373ffffffffffffffffffffffffffffffffffffffff167f8c5be1e5ebec7d5bd14f71427d1e84f3dd0314c0f7b2291e5b200ac8c7c3b92583604051610ab891906114fa565b60405180910390a3505050565b600073ffffffffffffffffffffffffffffffffffffffff168373ffffffffffffffffffffffffffffffffffffffff161415610b35576040517f08c379a0000000000000000000000000000000000000000000000000000000008152600401610b2c9061145a565b60405180910390fd5b600073ffffffffffffffffffffffffffffffffffffffff168273ffffffffffffffffffffffffffffffffffffffff161415610ba5576040517f08c379a0000000000000000000000000000000000000000000000000000000008152600401610b9c906113ba565b60405180910390fd5b610bb0838383610f20565b6000603360008573ffffffffffffffffffffffffffffffffffffffff1673ffffffffffffffffffffffffffffffffffffffff16815260200190815260200160002054905081811015610c37576040517f08c379a0000000000000000000000000000000000000000000000000000000008152600401610c2e906113fa565b60405180910390fd5b818103603360008673ffffffffffffffffffffffffffffffffffffffff1673ffffffffffffffffffffffffffffffffffffffff1681526020019081526020016000208190555081603360008573ffffffffffffffffffffffffffffffffffffffff1673ffffffffffffffffffffffffffffffffffffffff1681526020019081526020016000206000828254610ccc919061154c565b925050819055508273ffffffffffffffffffffffffffffffffffffffff168473ffffffffffffffffffffffffffffffffffffffff167fddf252ad1be2c89b69c2b068fc378daa952ba7f163c4a11628f55a4df523b3ef84604051610d3091906114fa565b60405180910390a3610d43848484610f25565b50505050565b6000610d54306108df565b15905090565b600060019054906101000a900460ff16610da9576040517f08c379a0000000000000000000000000000000000000000000000000000000008152600401610da09061149a565b60405180910390fd5b610db1610f2a565b610dbb8282610f7b565b5050565b600073ffffffffffffffffffffffffffffffffffffffff168273ffffffffffffffffffffffffffffffffffffffff161415610e2f576040517f08c379a0000000000000000000000000000000000000000000000000000000008152600401610e26906114da565b60405180910390fd5b610e3b60008383610f20565b8060356000828254610e4d919061154c565b9250508190555080603360008473ffffffffffffffffffffffffffffffffffffffff1673ffffffffffffffffffffffffffffffffffffffff1681526020019081526020016000206000828254610ea3919061154c565b925050819055508173ffffffffffffffffffffffffffffffffffffffff16600073ffffffffffffffffffffffffffffffffffffffff167fddf252ad1be2c89b69c2b068fc378daa952ba7f163c4a11628f55a4df523b3ef83604051610f0891906114fa565b60405180910390a3610f1c60008383610f25565b5050565b505050565b505050565b600060019054906101000a900460ff16610f79576040517f08c379a0000000000000000000000000000000000000000000000000000000008152600401610f709061149a565b60405180910390fd5b565b600060019054906101000a900460ff16610fca576040517f08c379a0000000000000000000000000000000000000000000000000000000008152600401610fc19061149a565b60405180910390fd5b8160369080519060200190610fe0929190610ffc565b508060379080519060200190610ff7929190610ffc565b505050565b828054611008906117f5565b90600052602060002090601f01602090048101928261102a5760008555611071565b82601f1061104357805160ff1916838001178555611071565b82800160010185558215611071579182015b82811115611070578251825591602001919060010190611055565b5b50905061107e9190611082565b5090565b5b8082111561109b576000816000905550600101611083565b5090565b6000813590506110ae81611b93565b92915050565b6000813590506110c381611baa565b92915050565b6000602082840312156110db57600080fd5b60006110e98482850161109f565b91505092915050565b6000806040838503121561110557600080fd5b60006111138582860161109f565b92505060206111248582860161109f565b9150509250929050565b60008060006060848603121561114357600080fd5b60006111518682870161109f565b93505060206111628682870161109f565b9250506040611173868287016110b4565b9150509250925092565b6000806040838503121561119057600080fd5b600061119e8582860161109f565b92505060206111af858286016110b4565b9150509250929050565b6111c28161177f565b82525050565b60006111d382611530565b6111dd818561153b565b93506111ed8185602086016117c2565b6111f681611885565b840191505092915050565b600061120e60238361153b565b9150611219826118a3565b604082019050919050565b600061123160228361153b565b915061123c826118f2565b604082019050919050565b600061125460268361153b565b915061125f82611941565b604082019050919050565b6000611277602e8361153b565b915061128282611990565b604082019050919050565b600061129a60288361153b565b91506112a5826119df565b604082019050919050565b60006112bd60258361153b565b91506112c882611a2e565b604082019050919050565b60006112e060248361153b565b91506112eb82611a7d565b604082019050919050565b6000611303602b8361153b565b915061130e82611acc565b604082019050919050565b600061132660258361153b565b915061133182611b1b565b604082019050919050565b6000611349601f8361153b565b915061135482611b6a565b602082019050919050565b611368816117ab565b82525050565b611377816117b5565b82525050565b600060208201905061139260008301846111b9565b92915050565b600060208201905081810360008301526113b281846111c8565b905092915050565b600060208201905081810360008301526113d381611201565b9050919050565b600060208201905081810360008301526113f381611224565b9050919050565b6000602082019050818103600083015261141381611247565b9050919050565b600060208201905081810360008301526114338161126a565b9050919050565b600060208201905081810360008301526114538161128d565b9050919050565b60006020820190508181036000830152611473816112b0565b9050919050565b60006020820190508181036000830152611493816112d3565b9050919050565b600060208201905081810360008301526114b3816112f6565b9050919050565b600060208201905081810360008301526114d381611319565b9050919050565b600060208201905081810360008301526114f38161133c565b9050919050565b600060208201905061150f600083018461135f565b92915050565b600060208201905061152a600083018461136e565b92915050565b600081519050919050565b600082825260208201905092915050565b6000611557826117ab565b9150611562836117ab565b9250827fffffffffffffffffffffffffffffffffffffffffffffffffffffffffffffffff0382111561159757611596611827565b5b828201905092915050565b6000808291508390505b60018511156115ec578086048111156115c8576115c7611827565b5b60018516156115d75780820291505b80810290506115e585611896565b94506115ac565b94509492505050565b6000611600826117ab565b915061160b836117b5565b92506116387fffffffffffffffffffffffffffffffffffffffffffffffffffffffffffffffff8484611640565b905092915050565b600082611650576001905061170c565b8161165e576000905061170c565b8160018114611674576002811461167e576116ad565b600191505061170c565b60ff8411156116905761168f611827565b5b8360020a9150848211156116a7576116a6611827565b5b5061170c565b5060208310610133831016604e8410600b84101617156116e25782820a9050838111156116dd576116dc611827565b5b61170c565b6116ef84848460016115a2565b9250905081840481111561170657611705611827565b5b81810290505b9392505050565b600061171e826117ab565b9150611729836117ab565b9250817fffffffffffffffffffffffffffffffffffffffffffffffffffffffffffffffff048311821515161561176257611761611827565b5b828202905092915050565b60006117788261178b565b9050919050565b60008115159050919050565b600073ffffffffffffffffffffffffffffffffffffffff82169050919050565b6000819050919050565b600060ff82169050919050565b60005b838110156117e05780820151818401526020810190506117c5565b838111156117ef576000848401525b50505050565b6000600282049050600182168061180d57607f821691505b6020821081141561182157611820611856565b5b50919050565b7f4e487b7100000000000000000000000000000000000000000000000000000000600052601160045260246000fd5b7f4e487b7100000000000000000000000000000000000000000000000000000000600052602260045260246000fd5b6000601f19601f8301169050919050565b60008160011c9050919050565b7f45524332303a207472616e7366657220746f20746865207a65726f206164647260008201527f6573730000000000000000000000000000000000000000000000000000000000602082015250565b7f45524332303a20617070726f766520746f20746865207a65726f20616464726560008201527f7373000000000000000000000000000000000000000000000000000000000000602082015250565b7f45524332303a207472616e7366657220616d6f756e742065786365656473206260008201527f616c616e63650000000000000000000000000000000000000000000000000000602082015250565b7f496e697469616c697a61626c653a20636f6e747261637420697320616c72656160008201527f647920696e697469616c697a6564000000000000000000000000000000000000602082015250565b7f45524332303a207472616e7366657220616d6f756e742065786365656473206160008201527f6c6c6f77616e6365000000000000000000000000000000000000000000000000602082015250565b7f45524332303a207472616e736665722066726f6d20746865207a65726f20616460008201527f6472657373000000000000000000000000000000000000000000000000000000602082015250565b7f45524332303a20617070726f76652066726f6d20746865207a65726f2061646460008201527f7265737300000000000000000000000000000000000000000000000000000000602082015250565b7f496e697469616c697a61626c653a20636f6e7472616374206973206e6f74206960008201527f6e697469616c697a696e67000000000000000000000000000000000000000000602082015250565b7f45524332303a2064656372656173656420616c6c6f77616e63652062656c6f7760008201527f207a65726f000000000000000000000000000000000000000000000000000000602082015250565b7f45524332303a206d696e7420746f20746865207a65726f206164647265737300600082015250565b611b9c8161176d565b8114611ba757600080fd5b50565b611bb3816117ab565b8114611bbe57600080fd5b5056fea2646970667358221220650ca50f231dd7d9fabe7c9568b16b6f0274de8716da8033c7fad450a171a5fd64736f6c63430008030033",
  "linkReferences": {},
  "deployedLinkReferences": {}
}