{
  "_format": "hh-sol-artifact-1",
  "contractName": "MyTokenV2",
  "sourceName": "contracts/MyTokenV2.sol",
  "abi": [
    {
      "inputs": [],
      "stateMutability": "nonpayable",
      "type": "constructor"
    },
    {
      "anonymous": false,
      "inputs": [
        {
          "indexed": false,
          "internalType": "address",
          "name": "previousAdmin",
          "type": "address"
        },
        {
          "indexed": false,
          "internalType": "address",
          "name": "newAdmin",
          "type": "address"
        }
      ],
      "name": "AdminChanged",
      "type": "event"
    },
    {
      "anonymous": false,
      "inputs": [
        {
          "indexed": true,
          "internalType": "address",
          "name": "owner",
          "type": "address"
        },
        {
          "indexed": true,
          "internalType": "address",
          "name": "spender",
          "type": "address"
        },
        {
          "indexed": false,
          "internalType": "uint256",
          "name": "value",
          "type": "uint256"
        }
      ],
      "name": "Approval",
      "type": "event"
    },
    {
      "anonymous": false,
      "inputs": [
        {
          "indexed": true,
          "internalType": "address",
          "name": "beacon",
          "type": "address"
        }
      ],
      "name": "BeaconUpgraded",
      "type": "event"
    },
    {
      "anonymous": false,
      "inputs": [
        {
          "indexed": true,
          "internalType": "address",
          "name": "previousOwner",
          "type": "address"
        },
        {
          "indexed": true,
          "internalType": "address",
          "name": "newOwner",
          "type": "address"
        }
      ],
      "name": "OwnershipTransferred",
      "type": "event"
    },
    {
      "anonymous": false,
      "inputs": [
        {
          "indexed": true,
          "internalType": "address",
          "name": "from",
          "type": "address"
        },
        {
          "indexed": true,
          "internalType": "address",
          "name": "to",
          "type": "address"
        },
        {
          "indexed": false,
          "internalType": "uint256",
          "name": "value",
          "type": "uint256"
        }
      ],
      "name": "Transfer",
      "type": "event"
    },
    {
      "anonymous": false,
      "inputs": [
        {
          "indexed": true,
          "internalType": "address",
          "name": "implementation",
          "type": "address"
        }
      ],
      "name": "Upgraded",
      "type": "event"
    },
    {
      "inputs": [
        {
          "internalType": "address",
          "name": "owner",
          "type": "address"
        },
        {
          "internalType": "address",
          "name": "spender",
          "type": "address"
        }
      ],
      "name": "allowance",
      "outputs": [
        {
          "internalType": "uint256",
          "name": "",
          "type": "uint256"
        }
      ],
      "stateMutability": "view",
      "type": "function"
    },
    {
      "inputs": [
        {
          "internalType": "address",
          "name": "spender",
          "type": "address"
        },
        {
          "internalType": "uint256",
          "name": "amount",
          "type": "uint256"
        }
      ],
      "name": "approve",
      "outputs": [
        {
          "internalType": "bool",
          "name": "",
          "type": "bool"
        }
      ],
      "stateMutability": "nonpayable",
      "type": "function"
    },
    {
      "inputs": [
        {
          "internalType": "address",
          "name": "account",
          "type": "address"
        }
      ],
      "name": "balanceOf",
      "outputs": [
        {
          "internalType": "uint256",
          "name": "",
          "type": "uint256"
        }
      ],
      "stateMutability": "view",
      "type": "function"
    },
    {
      "inputs": [],
      "name": "decimals",
      "outputs": [
        {
          "internalType": "uint8",
          "name": "",
          "type": "uint8"
        }
      ],
      "stateMutability": "view",
      "type": "function"
    },
    {
      "inputs": [
        {
          "internalType": "address",
          "name": "spender",
          "type": "address"
        },
        {
          "internalType": "uint256",
          "name": "subtractedValue",
          "type": "uint256"
        }
      ],
      "name": "decreaseAllowance",
      "outputs": [
        {
          "internalType": "bool",
          "name": "",
          "type": "bool"
        }
      ],
      "stateMutability": "nonpayable",
      "type": "function"
    },
    {
      "inputs": [
        {
          "internalType": "address",
          "name": "spender",
          "type": "address"
        },
        {
          "internalType": "uint256",
          "name": "addedValue",
          "type": "uint256"
        }
      ],
      "name": "increaseAllowance",
      "outputs": [
        {
          "internalType": "bool",
          "name": "",
          "type": "bool"
        }
      ],
      "stateMutability": "nonpayable",
      "type": "function"
    },
    {
      "inputs": [],
      "name": "initialize",
      "outputs": [],
      "stateMutability": "nonpayable",
      "type": "function"
    },
    {
      "inputs": [],
      "name": "name",
      "outputs": [
        {
          "internalType": "string",
          "name": "",
          "type": "string"
        }
      ],
      "stateMutability": "view",
      "type": "function"
    },
    {
      "inputs": [],
      "name": "owner",
      "outputs": [
        {
          "internalType": "address",
          "name": "",
          "type": "address"
        }
      ],
      "stateMutability": "view",
      "type": "function"
    },
    {
      "inputs": [],
      "name": "renounceOwnership",
      "outputs": [],
      "stateMutability": "nonpayable",
      "type": "function"
    },
    {
      "inputs": [],
      "name": "symbol",
      "outputs": [
        {
          "internalType": "string",
          "name": "",
          "type": "string"
        }
      ],
      "stateMutability": "view",
      "type": "function"
    },
    {
      "inputs": [],
      "name": "totalSupply",
      "outputs": [
        {
          "internalType": "uint256",
          "name": "",
          "type": "uint256"
        }
      ],
      "stateMutability": "view",
      "type": "function"
    },
    {
      "inputs": [
        {
          "internalType": "address",
          "name": "recipient",
          "type": "address"
        },
        {
          "internalType": "uint256",
          "name": "amount",
          "type": "uint256"
        }
      ],
      "name": "transfer",
      "outputs": [
        {
          "internalType": "bool",
          "name": "",
          "type": "bool"
        }
      ],
      "stateMutability": "nonpayable",
      "type": "function"
    },
    {
      "inputs": [
        {
          "internalType": "address",
          "name": "sender",
          "type": "address"
        },
        {
          "internalType": "address",
          "name": "recipient",
          "type": "address"
        },
        {
          "internalType": "uint256",
          "name": "amount",
          "type": "uint256"
        }
      ],
      "name": "transferFrom",
      "outputs": [
        {
          "internalType": "bool",
          "name": "",
          "type": "bool"
        }
      ],
      "stateMutability": "nonpayable",
      "type": "function"
    },
    {
      "inputs": [
        {
          "internalType": "address",
          "name": "newOwner",
          "type": "address"
        }
      ],
      "name": "transferOwnership",
      "outputs": [],
      "stateMutability": "nonpayable",
      "type": "function"
    },
    {
      "inputs": [
        {
          "internalType": "address",
          "name": "newImplementation",
          "type": "address"
        }
      ],
      "name": "upgradeTo",
      "outputs": [],
      "stateMutability": "nonpayable",
      "type": "function"
    },
    {
      "inputs": [
        {
          "internalType": "address",
          "name": "newImplementation",
          "type": "address"
        },
        {
          "internalType": "bytes",
          "name": "data",
          "type": "bytes"
        }
      ],
      "name": "upgradeToAndCall",
      "outputs": [],
      "stateMutability": "payable",
      "type": "function"
    }
  ],
  "bytecode": "0x60a06040523073ffffffffffffffffffffffffffffffffffffffff1660809073ffffffffffffffffffffffffffffffffffffffff1660601b8152503480156200004757600080fd5b50600060019054906101000a900460ff16620000725760008054906101000a900460ff161562000083565b620000826200013f60201b60201c565b5b620000c5576040517f08c379a0000000000000000000000000000000000000000000000000000000008152600401620000bc9062000197565b60405180910390fd5b60008060019054906101000a900460ff16159050801562000116576001600060016101000a81548160ff02191690831515021790555060016000806101000a81548160ff0219169083151502179055505b8015620001385760008060016101000a81548160ff0219169083151502179055505b5062000219565b600062000157306200015d60201b62000f1a1760201c565b15905090565b600080823b905060008111915050919050565b60006200017f602e83620001b9565b91506200018c82620001ca565b604082019050919050565b60006020820190508181036000830152620001b28162000170565b9050919050565b600082825260208201905092915050565b7f496e697469616c697a61626c653a20636f6e747261637420697320616c72656160008201527f647920696e697469616c697a6564000000000000000000000000000000000000602082015250565b60805160601c612fd36200024d600039600081816105de0152818161066d0152818161083901526108c80152612fd36000f3fe6080604052600436106100fe5760003560e01c806370a082311161009557806395d89b411161006457806395d89b4114610316578063a457c2d714610341578063a9059cbb1461037e578063dd62ed3e146103bb578063f2fde38b146103f8576100fe565b806370a0823114610280578063715018a6146102bd5780638129fc1c146102d45780638da5cb5b146102eb576100fe565b8063313ce567116100d1578063313ce567146101d35780633659cfe6146101fe57806339509351146102275780634f1ef28614610264576100fe565b806306fdde0314610103578063095ea7b31461012e57806318160ddd1461016b57806323b872dd14610196575b600080fd5b34801561010f57600080fd5b50610118610421565b604051610125919061238f565b60405180910390f35b34801561013a57600080fd5b506101556004803603810190610150919061200d565b6104b3565b6040516101629190612374565b60405180910390f35b34801561017757600080fd5b506101806104d1565b60405161018d91906125d1565b60405180910390f35b3480156101a257600080fd5b506101bd60048036038101906101b89190611f6a565b6104db565b6040516101ca9190612374565b60405180910390f35b3480156101df57600080fd5b506101e86105d3565b6040516101f591906125ec565b60405180910390f35b34801561020a57600080fd5b5061022560048036038101906102209190611f05565b6105dc565b005b34801561023357600080fd5b5061024e6004803603810190610249919061200d565b61078b565b60405161025b9190612374565b60405180910390f35b61027e60048036038101906102799190611fb9565b610837565b005b34801561028c57600080fd5b506102a760048036038101906102a29190611f05565b610974565b6040516102b491906125d1565b60405180910390f35b3480156102c957600080fd5b506102d26109bd565b005b3480156102e057600080fd5b506102e9610a45565b005b3480156102f757600080fd5b50610300610bd6565b60405161030d9190612359565b60405180910390f35b34801561032257600080fd5b5061032b610c00565b604051610338919061238f565b60405180910390f35b34801561034d57600080fd5b506103686004803603810190610363919061200d565b610c92565b6040516103759190612374565b60405180910390f35b34801561038a57600080fd5b506103a560048036038101906103a0919061200d565b610d7d565b6040516103b29190612374565b60405180910390f35b3480156103c757600080fd5b506103e260048036038101906103dd9190611f2e565b610d9b565b6040516103ef91906125d1565b60405180910390f35b34801561040457600080fd5b5061041f600480360381019061041a9190611f05565b610e22565b005b60606036805461043090612947565b80601f016020809104026020016040519081016040528092919081815260200182805461045c90612947565b80156104a95780601f1061047e576101008083540402835291602001916104a9565b820191906000526020600020905b81548152906001019060200180831161048c57829003601f168201915b5050505050905090565b60006104c76104c0610f2d565b8484610f35565b6001905092915050565b6000603554905090565b60006104e8848484611100565b6000603460008673ffffffffffffffffffffffffffffffffffffffff1673ffffffffffffffffffffffffffffffffffffffff1681526020019081526020016000206000610533610f2d565b73ffffffffffffffffffffffffffffffffffffffff1673ffffffffffffffffffffffffffffffffffffffff168152602001908152602001600020549050828110156105b3576040517f08c379a00000000000000000000000000000000000000000000000000000000081526004016105aa906124d1565b60405180910390fd5b6105c7856105bf610f2d565b858403610f35565b60019150509392505050565b60006012905090565b7f000000000000000000000000000000000000000000000000000000000000000073ffffffffffffffffffffffffffffffffffffffff163073ffffffffffffffffffffffffffffffffffffffff16141561066b576040517f08c379a000000000000000000000000000000000000000000000000000000000815260040161066290612431565b60405180910390fd5b7f000000000000000000000000000000000000000000000000000000000000000073ffffffffffffffffffffffffffffffffffffffff166106aa611384565b73ffffffffffffffffffffffffffffffffffffffff1614610700576040517f08c379a00000000000000000000000000000000000000000000000000000000081526004016106f790612471565b60405180910390fd5b610709816113db565b61078881600067ffffffffffffffff81111561074e577f4e487b7100000000000000000000000000000000000000000000000000000000600052604160045260246000fd5b6040519080825280601f01601f1916602001820160405280156107805781602001600182028036833780820191505090505b50600061145a565b50565b600061082d610798610f2d565b8484603460006107a6610f2d565b73ffffffffffffffffffffffffffffffffffffffff1673ffffffffffffffffffffffffffffffffffffffff16815260200190815260200160002060008873ffffffffffffffffffffffffffffffffffffffff1673ffffffffffffffffffffffffffffffffffffffff16815260200190815260200160002054610828919061268f565b610f35565b6001905092915050565b7f000000000000000000000000000000000000000000000000000000000000000073ffffffffffffffffffffffffffffffffffffffff163073ffffffffffffffffffffffffffffffffffffffff1614156108c6576040517f08c379a00000000000000000000000000000000000000000000000000000000081526004016108bd90612431565b60405180910390fd5b7f000000000000000000000000000000000000000000000000000000000000000073ffffffffffffffffffffffffffffffffffffffff16610905611384565b73ffffffffffffffffffffffffffffffffffffffff161461095b576040517f08c379a000000000000000000000000000000000000000000000000000000000815260040161095290612471565b60405180910390fd5b610964826113db565b6109708282600161145a565b5050565b6000603360008373ffffffffffffffffffffffffffffffffffffffff1673ffffffffffffffffffffffffffffffffffffffff168152602001908152602001600020549050919050565b6109c5610f2d565b73ffffffffffffffffffffffffffffffffffffffff166109e3610bd6565b73ffffffffffffffffffffffffffffffffffffffff1614610a39576040517f08c379a0000000000000000000000000000000000000000000000000000000008152600401610a30906124f1565b60405180910390fd5b610a43600061162b565b565b600060019054906101000a900460ff16610a6d5760008054906101000a900460ff1615610a76565b610a756116f1565b5b610ab5576040517f08c379a0000000000000000000000000000000000000000000000000000000008152600401610aac90612491565b60405180910390fd5b60008060019054906101000a900460ff161590508015610b05576001600060016101000a81548160ff02191690831515021790555060016000806101000a81548160ff0219169083151502179055505b610b796040518060400160405280600781526020017f4d79546f6b656e000000000000000000000000000000000000000000000000008152506040518060400160405280600381526020017f4d544b0000000000000000000000000000000000000000000000000000000000815250611702565b610b81611767565b610b896117c8565b610bb233610b956105d3565b600a610ba19190612738565b6001610bad9190612856565b611829565b8015610bd35760008060016101000a81548160ff0219169083151502179055505b50565b600060c960009054906101000a900473ffffffffffffffffffffffffffffffffffffffff16905090565b606060378054610c0f90612947565b80601f0160208091040260200160405190810160405280929190818152602001828054610c3b90612947565b8015610c885780601f10610c5d57610100808354040283529160200191610c88565b820191906000526020600020905b815481529060010190602001808311610c6b57829003601f168201915b5050505050905090565b60008060346000610ca1610f2d565b73ffffffffffffffffffffffffffffffffffffffff1673ffffffffffffffffffffffffffffffffffffffff16815260200190815260200160002060008573ffffffffffffffffffffffffffffffffffffffff1673ffffffffffffffffffffffffffffffffffffffff16815260200190815260200160002054905082811015610d5e576040517f08c379a0000000000000000000000000000000000000000000000000000000008152600401610d5590612591565b60405180910390fd5b610d72610d69610f2d565b85858403610f35565b600191505092915050565b6000610d91610d8a610f2d565b8484611100565b6001905092915050565b6000603460008473ffffffffffffffffffffffffffffffffffffffff1673ffffffffffffffffffffffffffffffffffffffff16815260200190815260200160002060008373ffffffffffffffffffffffffffffffffffffffff1673ffffffffffffffffffffffffffffffffffffffff16815260200190815260200160002054905092915050565b610e2a610f2d565b73ffffffffffffffffffffffffffffffffffffffff16610e48610bd6565b73ffffffffffffffffffffffffffffffffffffffff1614610e9e576040517f08c379a0000000000000000000000000000000000000000000000000000000008152600401610e95906124f1565b60405180910390fd5b600073ffffffffffffffffffffffffffffffffffffffff168173ffffffffffffffffffffffffffffffffffffffff161415610f0e576040517f08c379a0000000000000000000000000000000000000000000000000000000008152600401610f05906123f1565b60405180910390fd5b610f178161162b565b50565b600080823b905060008111915050919050565b600033905090565b600073ffffffffffffffffffffffffffffffffffffffff168373ffffffffffffffffffffffffffffffffffffffff161415610fa5576040517f08c379a0000000000000000000000000000000000000000000000000000000008152600401610f9c90612551565b60405180910390fd5b600073ffffffffffffffffffffffffffffffffffffffff168273ffffffffffffffffffffffffffffffffffffffff161415611015576040517f08c379a000000000000000000000000000000000000000000000000000000000815260040161100c90612411565b60405180910390fd5b80603460008573ffffffffffffffffffffffffffffffffffffffff1673ffffffffffffffffffffffffffffffffffffffff16815260200190815260200160002060008473ffffffffffffffffffffffffffffffffffffffff1673ffffffffffffffffffffffffffffffffffffffff168152602001908152602001600020819055508173ffffffffffffffffffffffffffffffffffffffff168373ffffffffffffffffffffffffffffffffffffffff167f8c5be1e5ebec7d5bd14f71427d1e84f3dd0314c0f7b2291e5b200ac8c7c3b925836040516110f391906125d1565b60405180910390a3505050565b600073ffffffffffffffffffffffffffffffffffffffff168373ffffffffffffffffffffffffffffffffffffffff161415611170576040517f08c379a000000000000000000000000000000000000000000000000000000000815260040161116790612531565b60405180910390fd5b600073ffffffffffffffffffffffffffffffffffffffff168273ffffffffffffffffffffffffffffffffffffffff1614156111e0576040517f08c379a00000000000000000000000000000000000000000000000000000000081526004016111d7906123b1565b60405180910390fd5b6111eb83838361198a565b6000603360008573ffffffffffffffffffffffffffffffffffffffff1673ffffffffffffffffffffffffffffffffffffffff16815260200190815260200160002054905081811015611272576040517f08c379a000000000000000000000000000000000000000000000000000000000815260040161126990612451565b60405180910390fd5b818103603360008673ffffffffffffffffffffffffffffffffffffffff1673ffffffffffffffffffffffffffffffffffffffff1681526020019081526020016000208190555081603360008573ffffffffffffffffffffffffffffffffffffffff1673ffffffffffffffffffffffffffffffffffffffff1681526020019081526020016000206000828254611307919061268f565b925050819055508273ffffffffffffffffffffffffffffffffffffffff168473ffffffffffffffffffffffffffffffffffffffff167fddf252ad1be2c89b69c2b068fc378daa952ba7f163c4a11628f55a4df523b3ef8460405161136b91906125d1565b60405180910390a361137e84848461198f565b50505050565b60006113b27f360894a13ba1a3210667c828492db98dca3e2076cc3735a920a3ca505d382bbc60001b611994565b60000160009054906101000a900473ffffffffffffffffffffffffffffffffffffffff16905090565b6113e3610f2d565b73ffffffffffffffffffffffffffffffffffffffff16611401610bd6565b73ffffffffffffffffffffffffffffffffffffffff1614611457576040517f08c379a000000000000000000000000000000000000000000000000000000000815260040161144e906124f1565b60405180910390fd5b50565b6000611464611384565b905061146f8461199e565b60008351118061147c5750815b1561148d5761148b8484611a57565b505b60006114bb7f4910fdfa16fed3260ed0e7147f7cc6da11a60208b5b9406d12a635614ffd914360001b611b3b565b90508060000160009054906101000a900460ff166116245760018160000160006101000a81548160ff02191690831515021790555061158785836040516024016115059190612359565b6040516020818303038152906040527f3659cfe6000000000000000000000000000000000000000000000000000000007bffffffffffffffffffffffffffffffffffffffffffffffffffffffff19166020820180517bffffffffffffffffffffffffffffffffffffffffffffffffffffffff8381831617835250505050611a57565b5060008160000160006101000a81548160ff0219169083151502179055506115ad611384565b73ffffffffffffffffffffffffffffffffffffffff168273ffffffffffffffffffffffffffffffffffffffff161461161a576040517f08c379a0000000000000000000000000000000000000000000000000000000008152600401611611906123d1565b60405180910390fd5b61162385611b45565b5b5050505050565b600060c960009054906101000a900473ffffffffffffffffffffffffffffffffffffffff1690508160c960006101000a81548173ffffffffffffffffffffffffffffffffffffffff021916908373ffffffffffffffffffffffffffffffffffffffff1602179055508173ffffffffffffffffffffffffffffffffffffffff168173ffffffffffffffffffffffffffffffffffffffff167f8be0079c531659141344cd1fd0a4f28419497f9722a3daafe3b4186f6b6457e060405160405180910390a35050565b60006116fc30610f1a565b15905090565b600060019054906101000a900460ff16611751576040517f08c379a000000000000000000000000000000000000000000000000000000000815260040161174890612571565b60405180910390fd5b611759611b94565b6117638282611be5565b5050565b600060019054906101000a900460ff166117b6576040517f08c379a00000000000000000000000000000000000000000000000000000000081526004016117ad90612571565b60405180910390fd5b6117be611b94565b6117c6611c66565b565b600060019054906101000a900460ff16611817576040517f08c379a000000000000000000000000000000000000000000000000000000000815260040161180e90612571565b60405180910390fd5b61181f611cc7565b611827611d18565b565b600073ffffffffffffffffffffffffffffffffffffffff168273ffffffffffffffffffffffffffffffffffffffff161415611899576040517f08c379a0000000000000000000000000000000000000000000000000000000008152600401611890906125b1565b60405180910390fd5b6118a56000838361198a565b80603560008282546118b7919061268f565b9250508190555080603360008473ffffffffffffffffffffffffffffffffffffffff1673ffffffffffffffffffffffffffffffffffffffff168152602001908152602001600020600082825461190d919061268f565b925050819055508173ffffffffffffffffffffffffffffffffffffffff16600073ffffffffffffffffffffffffffffffffffffffff167fddf252ad1be2c89b69c2b068fc378daa952ba7f163c4a11628f55a4df523b3ef8360405161197291906125d1565b60405180910390a36119866000838361198f565b5050565b505050565b505050565b6000819050919050565b6119a781610f1a565b6119e6576040517f08c379a00000000000000000000000000000000000000000000000000000000081526004016119dd906124b1565b60405180910390fd5b80611a137f360894a13ba1a3210667c828492db98dca3e2076cc3735a920a3ca505d382bbc60001b611994565b60000160006101000a81548173ffffffffffffffffffffffffffffffffffffffff021916908373ffffffffffffffffffffffffffffffffffffffff16021790555050565b6060611a6283610f1a565b611aa1576040517f08c379a0000000000000000000000000000000000000000000000000000000008152600401611a9890612511565b60405180910390fd5b6000808473ffffffffffffffffffffffffffffffffffffffff1684604051611ac99190612342565b600060405180830381855af49150503d8060008114611b04576040519150601f19603f3d011682016040523d82523d6000602084013e611b09565b606091505b5091509150611b318282604051806060016040528060278152602001612f7760279139611d69565b9250505092915050565b6000819050919050565b611b4e8161199e565b8073ffffffffffffffffffffffffffffffffffffffff167fbc7cd75a20ee27fd9adebab32041f755214dbc6bffa90cc0225b39da2e5c2d3b60405160405180910390a250565b600060019054906101000a900460ff16611be3576040517f08c379a0000000000000000000000000000000000000000000000000000000008152600401611bda90612571565b60405180910390fd5b565b600060019054906101000a900460ff16611c34576040517f08c379a0000000000000000000000000000000000000000000000000000000008152600401611c2b90612571565b60405180910390fd5b8160369080519060200190611c4a929190611dd0565b508060379080519060200190611c61929190611dd0565b505050565b600060019054906101000a900460ff16611cb5576040517f08c379a0000000000000000000000000000000000000000000000000000000008152600401611cac90612571565b60405180910390fd5b611cc5611cc0610f2d565b61162b565b565b600060019054906101000a900460ff16611d16576040517f08c379a0000000000000000000000000000000000000000000000000000000008152600401611d0d90612571565b60405180910390fd5b565b600060019054906101000a900460ff16611d67576040517f08c379a0000000000000000000000000000000000000000000000000000000008152600401611d5e90612571565b60405180910390fd5b565b60608315611d7957829050611dc9565b600083511115611d8c5782518084602001fd5b816040517f08c379a0000000000000000000000000000000000000000000000000000000008152600401611dc0919061238f565b60405180910390fd5b9392505050565b828054611ddc90612947565b90600052602060002090601f016020900481019282611dfe5760008555611e45565b82601f10611e1757805160ff1916838001178555611e45565b82800160010185558215611e45579182015b82811115611e44578251825591602001919060010190611e29565b5b509050611e529190611e56565b5090565b5b80821115611e6f576000816000905550600101611e57565b5090565b6000611e86611e818461262c565b612607565b905082815260208101848484011115611e9e57600080fd5b611ea9848285612905565b509392505050565b600081359050611ec081612f48565b92915050565b600082601f830112611ed757600080fd5b8135611ee7848260208601611e73565b91505092915050565b600081359050611eff81612f5f565b92915050565b600060208284031215611f1757600080fd5b6000611f2584828501611eb1565b91505092915050565b60008060408385031215611f4157600080fd5b6000611f4f85828601611eb1565b9250506020611f6085828601611eb1565b9150509250929050565b600080600060608486031215611f7f57600080fd5b6000611f8d86828701611eb1565b9350506020611f9e86828701611eb1565b9250506040611faf86828701611ef0565b9150509250925092565b60008060408385031215611fcc57600080fd5b6000611fda85828601611eb1565b925050602083013567ffffffffffffffff811115611ff757600080fd5b61200385828601611ec6565b9150509250929050565b6000806040838503121561202057600080fd5b600061202e85828601611eb1565b925050602061203f85828601611ef0565b9150509250929050565b612052816128b0565b82525050565b612061816128c2565b82525050565b60006120728261265d565b61207c8185612673565b935061208c818560208601612914565b80840191505092915050565b60006120a382612668565b6120ad818561267e565b93506120bd818560208601612914565b6120c681612a37565b840191505092915050565b60006120de60238361267e565b91506120e982612a55565b604082019050919050565b6000612101602f8361267e565b915061210c82612aa4565b604082019050919050565b600061212460268361267e565b915061212f82612af3565b604082019050919050565b600061214760228361267e565b915061215282612b42565b604082019050919050565b600061216a602c8361267e565b915061217582612b91565b604082019050919050565b600061218d60268361267e565b915061219882612be0565b604082019050919050565b60006121b0602c8361267e565b91506121bb82612c2f565b604082019050919050565b60006121d3602e8361267e565b91506121de82612c7e565b604082019050919050565b60006121f6602d8361267e565b915061220182612ccd565b604082019050919050565b600061221960288361267e565b915061222482612d1c565b604082019050919050565b600061223c60208361267e565b915061224782612d6b565b602082019050919050565b600061225f60268361267e565b915061226a82612d94565b604082019050919050565b600061228260258361267e565b915061228d82612de3565b604082019050919050565b60006122a560248361267e565b91506122b082612e32565b604082019050919050565b60006122c8602b8361267e565b91506122d382612e81565b604082019050919050565b60006122eb60258361267e565b91506122f682612ed0565b604082019050919050565b600061230e601f8361267e565b915061231982612f1f565b602082019050919050565b61232d816128ee565b82525050565b61233c816128f8565b82525050565b600061234e8284612067565b915081905092915050565b600060208201905061236e6000830184612049565b92915050565b60006020820190506123896000830184612058565b92915050565b600060208201905081810360008301526123a98184612098565b905092915050565b600060208201905081810360008301526123ca816120d1565b9050919050565b600060208201905081810360008301526123ea816120f4565b9050919050565b6000602082019050818103600083015261240a81612117565b9050919050565b6000602082019050818103600083015261242a8161213a565b9050919050565b6000602082019050818103600083015261244a8161215d565b9050919050565b6000602082019050818103600083015261246a81612180565b9050919050565b6000602082019050818103600083015261248a816121a3565b9050919050565b600060208201905081810360008301526124aa816121c6565b9050919050565b600060208201905081810360008301526124ca816121e9565b9050919050565b600060208201905081810360008301526124ea8161220c565b9050919050565b6000602082019050818103600083015261250a8161222f565b9050919050565b6000602082019050818103600083015261252a81612252565b9050919050565b6000602082019050818103600083015261254a81612275565b9050919050565b6000602082019050818103600083015261256a81612298565b9050919050565b6000602082019050818103600083015261258a816122bb565b9050919050565b600060208201905081810360008301526125aa816122de565b9050919050565b600060208201905081810360008301526125ca81612301565b9050919050565b60006020820190506125e66000830184612324565b92915050565b60006020820190506126016000830184612333565b92915050565b6000612611612622565b905061261d8282612979565b919050565b6000604051905090565b600067ffffffffffffffff82111561264757612646612a08565b5b61265082612a37565b9050602081019050919050565b600081519050919050565b600081519050919050565b600081905092915050565b600082825260208201905092915050565b600061269a826128ee565b91506126a5836128ee565b9250827fffffffffffffffffffffffffffffffffffffffffffffffffffffffffffffffff038211156126da576126d96129aa565b5b828201905092915050565b6000808291508390505b600185111561272f5780860481111561270b5761270a6129aa565b5b600185161561271a5780820291505b808102905061272885612a48565b94506126ef565b94509492505050565b6000612743826128ee565b915061274e836128f8565b925061277b7fffffffffffffffffffffffffffffffffffffffffffffffffffffffffffffffff8484612783565b905092915050565b600082612793576001905061284f565b816127a1576000905061284f565b81600181146127b757600281146127c1576127f0565b600191505061284f565b60ff8411156127d3576127d26129aa565b5b8360020a9150848211156127ea576127e96129aa565b5b5061284f565b5060208310610133831016604e8410600b84101617156128255782820a9050838111156128205761281f6129aa565b5b61284f565b61283284848460016126e5565b92509050818404811115612849576128486129aa565b5b81810290505b9392505050565b6000612861826128ee565b915061286c836128ee565b9250817fffffffffffffffffffffffffffffffffffffffffffffffffffffffffffffffff04831182151516156128a5576128a46129aa565b5b828202905092915050565b60006128bb826128ce565b9050919050565b60008115159050919050565b600073ffffffffffffffffffffffffffffffffffffffff82169050919050565b6000819050919050565b600060ff82169050919050565b82818337600083830152505050565b60005b83811015612932578082015181840152602081019050612917565b83811115612941576000848401525b50505050565b6000600282049050600182168061295f57607f821691505b60208210811415612973576129726129d9565b5b50919050565b61298282612a37565b810181811067ffffffffffffffff821117156129a1576129a0612a08565b5b80604052505050565b7f4e487b7100000000000000000000000000000000000000000000000000000000600052601160045260246000fd5b7f4e487b7100000000000000000000000000000000000000000000000000000000600052602260045260246000fd5b7f4e487b7100000000000000000000000000000000000000000000000000000000600052604160045260246000fd5b6000601f19601f8301169050919050565b60008160011c9050919050565b7f45524332303a207472616e7366657220746f20746865207a65726f206164647260008201527f6573730000000000000000000000000000000000000000000000000000000000602082015250565b7f45524331393637557067726164653a207570677261646520627265616b73206660008201527f7572746865722075706772616465730000000000000000000000000000000000602082015250565b7f4f776e61626c653a206e6577206f776e657220697320746865207a65726f206160008201527f6464726573730000000000000000000000000000000000000000000000000000602082015250565b7f45524332303a20617070726f766520746f20746865207a65726f20616464726560008201527f7373000000000000000000000000000000000000000000000000000000000000602082015250565b7f46756e6374696f6e206d7573742062652063616c6c6564207468726f7567682060008201527f64656c656761746563616c6c0000000000000000000000000000000000000000602082015250565b7f45524332303a207472616e7366657220616d6f756e742065786365656473206260008201527f616c616e63650000000000000000000000000000000000000000000000000000602082015250565b7f46756e6374696f6e206d7573742062652063616c6c6564207468726f7567682060008201527f6163746976652070726f78790000000000000000000000000000000000000000602082015250565b7f496e697469616c697a61626c653a20636f6e747261637420697320616c72656160008201527f647920696e697469616c697a6564000000000000000000000000000000000000602082015250565b7f455243313936373a206e657720696d706c656d656e746174696f6e206973206e60008201527f6f74206120636f6e747261637400000000000000000000000000000000000000602082015250565b7f45524332303a207472616e7366657220616d6f756e742065786365656473206160008201527f6c6c6f77616e6365000000000000000000000000000000000000000000000000602082015250565b7f4f776e61626c653a2063616c6c6572206973206e6f7420746865206f776e6572600082015250565b7f416464726573733a2064656c65676174652063616c6c20746f206e6f6e2d636f60008201527f6e74726163740000000000000000000000000000000000000000000000000000602082015250565b7f45524332303a207472616e736665722066726f6d20746865207a65726f20616460008201527f6472657373000000000000000000000000000000000000000000000000000000602082015250565b7f45524332303a20617070726f76652066726f6d20746865207a65726f2061646460008201527f7265737300000000000000000000000000000000000000000000000000000000602082015250565b7f496e697469616c697a61626c653a20636f6e7472616374206973206e6f74206960008201527f6e697469616c697a696e67000000000000000000000000000000000000000000602082015250565b7f45524332303a2064656372656173656420616c6c6f77616e63652062656c6f7760008201527f207a65726f000000000000000000000000000000000000000000000000000000602082015250565b7f45524332303a206d696e7420746f20746865207a65726f206164647265737300600082015250565b612f51816128b0565b8114612f5c57600080fd5b50565b612f68816128ee565b8114612f7357600080fd5b5056fe416464726573733a206c6f772d6c6576656c2064656c65676174652063616c6c206661696c6564a2646970667358221220fa98aef60c232690f3b4fd0105ebd3b794913a87e98705bdcdc5d61104d7f99864736f6c63430008030033",
  "linkReferences": {},
  "deployedLinkReferences": {}
}